{
  "_format": "hh-sol-artifact-1",
  "contractName": "gasChallenge",
  "sourceName": "contracts/gasChallenge.sol",
  "abi": [
    {
      "inputs": [],
      "name": "getSumOfArray",
      "outputs": [
        {
          "internalType": "uint256",
          "name": "",
          "type": "uint256"
        }
      ],
      "stateMutability": "view",
      "type": "function"
    },
    {
      "inputs": [],
      "name": "notOptimizedFunction",
      "outputs": [],
      "stateMutability": "nonpayable",
      "type": "function"
    },
    {
      "inputs": [],
      "name": "optimizedFunction",
      "outputs": [],
      "stateMutability": "nonpayable",
      "type": "function"
    }
  ],
  "bytecode": "0x6080604052604051806101400160405280600160ff168152602001600260ff168152602001600360ff168152602001600460ff168152602001600560ff168152602001600660ff168152602001600760ff168152602001600860ff168152602001600960ff168152602001600a60ff16815250600090600a610082929190610095565b5034801561008f57600080fd5b506100f7565b82600a81019282156100c9579160200282015b828111156100c8578251829060ff169055916020019190600101906100a8565b5b5090506100d691906100da565b5090565b5b808211156100f35760008160009055506001016100db565b5090565b6101fb806101066000396000f3fe608060405234801561001057600080fd5b50600436106100415760003560e01c806368b5f223146100465780637ce418941461005057806380d2c8031461005a575b600080fd5b61004e610078565b005b6100586100b4565b005b6100626100e1565b60405161006f9190610104565b60405180910390f35b60005b600a8110156100b15760008082600a81106100995761009861011f565b5b018190555080806100a99061017d565b91505061007b565b50565b6000600a819055506000805b600a8110156100dd576000602082028301556001810190506100c0565b5050565b6000600a54905090565b6000819050919050565b6100fe816100eb565b82525050565b600060208201905061011960008301846100f5565b92915050565b7f4e487b7100000000000000000000000000000000000000000000000000000000600052603260045260246000fd5b7f4e487b7100000000000000000000000000000000000000000000000000000000600052601160045260246000fd5b6000610188826100eb565b91507fffffffffffffffffffffffffffffffffffffffffffffffffffffffffffffffff82036101ba576101b961014e565b5b60018201905091905056fea264697066735822122016cf201006db5393ea16f9ef506eea522ab86304a476741536ff60653eae03cb64736f6c63430008120033",
  "linkReferences": {},
  "deployedLinkReferences": {}
}